:020000040800F2
:10000000D061002049030008B95500086349000881
:10001000B5550008DD1100087D64000800000000EF
:100020000000000000000000000000008D02000839
:100030005B18000800000000E10200081B5A0008DD
:1000400063030008630300086303000863030008F8
:1000500063030008630300086303000863030008E8
:1000600063030008630300086303000863030008D8
:100070000117000863030008630300086303000816
:10008000111700086303000863030008F11100085A
:10009000E11100086303000863030008630300081C
:1000A0006303000863030008630300086303000898
:1000B0006303000863030008630300086303000888
:1000C0006303000863030008630300086303000878
:1000D000630300082D6400084164000855640008AB
:1000E0006303000863030008630300086303000858
:1000F0006303000863030008630300086303000848
:100100006303000863030008630300086303000837
:100110006303000863030008555B0008655B000883
:100120006303000821170008311700086303000863
:10013000630300086303000863030008111200084A
:10014000011200086303000863030008630300084A
:100150006303000863030008630300086964000880
:1001600063030008630300086303000863030008D7
:100170006303000863030008630300080000000035
:1001800063030008630300086303000863030008B7
:1001900063030008630300086303000863030008A7
:1001A00000000000000000006303000800F002F8F7
:1001B00000F05CF80AA090E8000C82448344AAF1A5
:1001C0000107DA4501D100F051F8AFF2090EBAE8A3
:1001D0000F0013F0010F18BFFB1A43F0010318477B
:1001E00060B0000080B000000A444FF0000C10F82E
:1001F000013B13F0070408BF10F8014B1D1108BFA5
:1002000010F8015B641E05D010F8016B641E01F844
:10021000016BF9D113F0080F1EBF10F8014BAD1C94
:100220000C1B09D16D1E58BF01F801CBFAD505E0B2
:1002300014F8016B01F8016B6D1EF9D59142D6D30C
:10024000704700000023002400250026103A28BF34
:1002500078C1FBD8520728BF30C148BF0B60704738
:100260001FB50AF072FD1FBD10B510BD00F06AF990
:100270001146FFF7F5FF08F013F800F088F903B412
:10028000FFF7F2FF03BC00F089F900002B4B19685F
:100290000868B0E8F04F80F30988BFF36F8F4FF024
:1002A000000080F3118870470000000006480068D5
:1002B000006880F3088862B661B6BFF34F8FBFF362
:1002C0006F8F00DF00BF00BF08ED00E0DFF80C001B
:1002D000016841F470010160704700BF88ED00E0E3
:1002E000EFF30980BFF36F8F144B1A681EF0100FE5
:1002F00008BF20ED108A20E9F04F106008B44FF0DD
:10030000500080F31188BFF34F8FBFF36F8F09F058
:10031000A1FC4FF0000080F3118808BC1968086840
:10032000B0E8F04F1EF0100F08BFB0EC108A80F359
:100330000988BFF36F8F704700BF00BF9003002094
:10034000EFF30580704700000948804709480047DF
:10035000FEE7FEE7FEE7FEE7FEE7FEE7FEE7FEE775
:10036000FEE7FEE704480549054A064B70470000D2
:10037000F15A0008AD010008D05B0020D0610020D8
:10038000D05D0020D05D0020032A40F2308010F0C4
:10039000030C00F0158011F8013BBCF1020F624420
:1003A00098BF11F801CB00F8013B38BF11F8013BB1
:1003B000A2F1040298BF00F801CB38BF00F8013B5E
:1003C00011F0030300F02580083AC0F0088051F8CE
:1003D000043B083A51F804CBA0E80810F5E7121DD9
:1003E0005CBF51F8043B40F8043BAFF30080D207F8
:1003F00024BF11F8013B11F801CB48BF11F8012BC4
:1004000024BF00F8013B00F801CB48BF00F8012BE6
:10041000704710B5203AC0F00B80B1E81850203A70
:10042000A0E81850B1E81850A0E81850BFF4F5AF94
:100430005FEA027C24BFB1E81850A0E8185044BF1E
:1004400018C918C0BDE810405FEA827C24BF51F88B
:10045000043B40F8043B08BF7047D20728BF31F87F
:10046000023B48BF11F8012B28BF20F8023B48BFD0
:1004700000F8012B704702F0FF0343EA032242EA2F
:10048000024200F002B84FF000020429C0F01280CE
:1004900010F0030C00F01B80CCF1040CBCF1020F37
:1004A00018BF00F8012BA8BF20F8022BA1EB0C010C
:1004B00000F00DB85FEAC17C24BF00F8012B00F802
:1004C000012B48BF00F8012B70474FF0000200B528
:1004D000134694469646203922BFA0E80C50A0E867
:1004E0000C50B1F12001BFF4F7AF090728BFA0E815
:1004F0000C5048BF0CC05DF804EB890028BF40F8E1
:10050000042B08BF704748BF20F8022B11F0804F22
:1005100018BF00F8012B704770477047704710B53F
:1005200000F008F8006810BD10B5044600F002F8AD
:10053000046010BD004870476C5B002000487047A5
:100540006C5B00207546FFF7F9FFAE460500694673
:10055000534620F00700854618B020B5FFF702FF8C
:10056000BDE820404FF000064FF000074FF00008B4
:100570004FF0000B21F00701AC46ACE8C009ACE835
:10058000C009ACE8C009ACE8C0098D467047044614
:10059000AFF300802046FFF772FE000001491820EB
:1005A000ABBEFEE726000200704700002DED0A8B6F
:1005B0009FEDE30AE34880ED050AC0E108F07AF810
:1005C000E148B0F9160004EE900AF8EEE44AB0EE05
:1005D000644ADD48B0F9140004EE900AF8EEE44AEB
:1005E000F0EE643AD848B0F9120004EE900AF8EE42
:1005F000E44AB0EE643AD448B0F9040004EE900A3C
:10060000F8EEE44AF0EE642ACF48B0F9020004EEB6
:10061000900AF8EEE44AB0EE642ACB48B0F9000044
:1006200004EE900AF8EEE44AF0EE641AC648B0F917
:100630001E0004EE900AF8EEE44A9FEDC45A64EE00
:10064000854AB0EE641AC048B0F91C0004EE900A66
:10065000F8EEE44A9FEDBD5A64EE854AF0EE640A76
:10066000B948B0F91A0004EE900AF8EEE44A9FED9A
:10067000B75A64EE854AB0EE640A00F07FF9B448D8
:1006800090ED000AF8EE000A20EE200AD0ED000AF4
:1006900020EE200AAF48D0ED000AB0EE001A60EE5E
:1006A000810A90ED001A00EEC10AF7EE000A30EE62
:1006B000200A10EE101A08460AF0D6FA41EC1B0B7D
:1006C000A54890ED000AF0EE000A20EE200AA048AE
:1006D000D0ED000A20EE200AA048D0ED000AB0EECE
:1006E000001A60EE810A9B4890ED001A00EE810A24
:1006F00010EE101A08460AF0B7FA41EC1C0BB0EEE7
:100700004B1AF0EE6B1AB0EE4C0AF0EE6C0A06F0E3
:1007100037FAB0EE40AAF0EE60AA51EC1A0B09F0DD
:100720008DFD41EC190B9FED8E0B53EC102B09F056
:10073000DBFF41EC180B09F08DFD8B490860864802
:1007400090ED000AF8EE000A20EE200A8148D0ED74
:10075000000A20EE200A8148D0ED000AB0EE001A0F
:1007600060EE810A7A4890ED001A00EE810A10EEE0
:10077000101A08460AF078FA41EC1B0BB0EE4B0A4F
:10078000F0EE6B0A05F0E0FEB0EE40AAF0EE60AAD3
:1007900051EC1A0B09F052FD41EC190B9FED700B57
:1007A00053EC102B09F0A0FF41EC180B09F052FD9F
:1007B0006D494860684890ED000AF8EE000A20EEA6
:1007C000200AD0ED000A20EE200A6148D0ED000A90
:1007D000B0EE001A60EE810A90ED001A00EEC10A38
:1007E000F7EE000A30EE200A10EE101A08460AF062
:1007F0003BFA41EC1A0B564890ED000AF0EE000A65
:1008000020EE200A5348D0ED000A20EE200A53487B
:10081000D0ED000AB0EE001A60EE810A4E4890ED6D
:10082000001A00EE810A10EE101A08460AF01CFAAF
:1008300041EC1B0BB0EE4A1AF0EE6A1AB0EE4B0A0E
:10084000F0EE6B0A06F09CF9B0EE409AF0EE609A7A
:100850009FED430B53EC102B51EC190B09F044FFA7
:1008600041EC180B09F0F6FC3F4988603649B1F9B4
:10087000040009F021FF41EC1A0B3349B1F90200E1
:1008800009F01AFF41EC1B0BB0EE4A1AF0EE6A1A9F
:10089000B0EE4B0AF0EE6B0A06F072F9B0EE409A39
:1008A000F0EE609A9FED310B53EC102B51EC190BCD
:1008B00009F01AFF41EC180B09F0CCFC2D49086037
:1008C0002149B1F9040009F0F7FE41EC1A0B1E4969
:1008D000B1F9000009F0F0FE41EC1B0BB0EE4A1A32
:1008E000F0EE6A1AB0EE4B0AF0EE6B0A06F048F929
:1008F000B0EE409AF0EE609A9FED1C0B53EC102B7B
:1009000051EC190B09F0F0FE41EC180B09F0A2FCB8
:10091000184948601448D0ED010AB0EE600A182169
:10092000154808F0D1FF1348D0ED010AB0EE600A77
:100930001921114808F0C8FF052008F0FBF83DE632
:1009400000000000645900204259002058A08B3A52
:1009500070040020740400206C040020680400204F
:1009600000000040DCA54C401C5A00200000006044
:1009700066A64C40285A00204C0B002000B52DEDF7
:10098000108B97B0B0EE40AAF0EE60AAB0EE41BA7C
:10099000F0EE61CAF0EE42BAB0EE62CAF0EE439AEF
:1009A000F0EE638AB0EE449AFE4890ED000AD0ED76
:1009B000000A20EE200A8DED090A90ED000AFA489F
:1009C000D0ED000A20EE200A8DED080AF54890EDE2
:1009D000000AF648D0ED000A20EE200AB0EE40EA08
:1009E000F04890ED000AF248D0ED000A20EE200A0F
:1009F0008DED070AEC4890ED000AD0ED000A20EEDC
:100A0000200AF0EE40FA90ED000AE848D0ED000A26
:100A100020EE200A8DED060AE34890ED000AE44836
:100A2000D0ED000A20EE200AF0EE40EADF4890ED1B
:100A3000000AD0ED000A20EE200AB0EE40FA90ED58
:100A4000000ADB48D0ED000A20EE200A8DED050AF1
:100A500090ED000AD0ED000A20EE200A8DED040A88
:100A60002CEEAC0A0BEEAB0A0CEE0C0A10EE101AD0
:100A700008460AF0F9F8CDE900019DED000B06F0FB
:100A80009FFA8DED020B9DED020B51EC100B09F05E
:100A9000E1FB08EE100AB5EEC08AF1EE10FA03D1C0
:100AA00017B0BDEC108B00BD8CEE880AF0EE40CA8A
:100AB0008BEE880AF0EE40BA8CEE080AB0EE40CA1F
:100AC00029EEA90A08EEA80A09EE090A10EE101A82
:100AD00008460AF0C9F8CDE900019DED000B06F0CB
:100AE0006FFA8DED020B9DED020B51EC100B09F02E
:100AF000B1FB08EE100AB5EEC08AF1EE10FA00D193
:100B0000CEE789EE880AF0EE409A88EE880AF0EE89
:100B1000408A89EE080AB0EE409A3EEECE0AF0EE28
:100B2000000A20EE200A8DED120A9DED080ADDED87
:100B3000050A30EE200AF0EE000A20EE200A8DEDC4
:100B4000110A9DED090A30EE6F0A70EE4F0A9DED15
:100B5000040A30EE800A8DED100AB0EE000A69EE4C
:100B6000800AB6EE000A30EE4F1A9DED040A31EE0F
:100B7000400A20EE800AF0EE000A68EEA01ADDEDD1
:100B8000060A9DED071A70EEC10A01EEA00AF0EE0A
:100B9000000A69EE200A3EEE8E1A00EE810A8DED03
:100BA000150AB0EE000A29EE801A9DED060ADDED69
:100BB000070A30EE200A21EE000AF0EE000A28EEC5
:100BC000A01AF6EE000A70EEEF1ADDED040A71EEDF
:100BD000E00A01EE200AF0EE000A69EE201ADDEDCF
:100BE000050A9DED081A70EEC10A01EEA00A8DED0E
:100BF000140AB0EE000A29EE800A7EEECE0A20EE3C
:100C0000200AF0EE000A68EEA01ADDED050A9DED5F
:100C1000081A70EE810A01EEA00AF0EE000A69EEF1
:100C2000200AB6EE001A31EE6F1A31EE4F1AB0EE0E
:100C300040DA00EE81DA9DED150A60EE000A9DEDC6
:100C4000140A40EE000A10EE901A08460AF00CF85A
:100C5000CDE900019DED000B06F0B2F98DED020B20
:100C60009DED020B51EC100B09F0F4FA1390F0EE2D
:100C70004DDA9DED130AF0EE000A60EE200AB6EEA2
:100C8000000A30EE4F1A9DED040A31EE400A20EEC4
:100C9000800AB0EE6DDAF0EE000A6DEE200A3EEE4C
:100CA000CE1A00EE810A8DED0F0A9DED130AF0EECB
:100CB000000A20EE201A9DED060ADDED070A30EE4F
:100CC000600A21EE000AB0EE6DDAF0EE000A6DEE79
:100CD000201ADDED080A9DED051A70EE810A01EE7D
:100CE000A00A8DED0E0A9DED130AF0EE000A20EE2B
:100CF000200A7EEE2E0A20EE200AB0EE6DDAF0EE2B
:100D0000000A6DEE200AB6EE001A31EE6F1A31EECF
:100D10004F1A00EE810A8DED0D0A9DED100A6BEE63
:100D2000800A9DED110A4CEE400A9DED0D0A28EE59
:100D3000801A9DED0E0A09EE401A30EE810A8DED03
:100D40000C0A9DED120A6CEE000A9DED100A4CEEA5
:100D5000C00A9DED0F0A29EE001A9DED0D0A09EE5D
:100D6000C01A30EE810A8DED0B0A9DED110A6CEE72
:100D7000800A9DED120A4BEEC00A9DED0E0A29EE87
:100D8000801A9DED0F0A08EEC01A30EE810A8DED33
:100D90000A0A0848D0ED000A9DED0C0A064890EDBD
:100DA000001A0BE0680400206C040020700400208E
:100DB000740400205C0400208404002040EE010A3A
:100DC0007E48C0ED000A7E48D0ED000A9DED0B0A7A
:100DD0007C4890ED001A40EE010A7948C0ED000A07
:100DE0007948D0ED000A9DED0A0A764890ED001A88
:100DF00040EE010A7448C0ED000A7048D0ED000AC8
:100E0000724890ED001A9DED0C0A41EE000A30EE9A
:100E10008A0AB0EE40AA6A48D0ED000A6B4890ED0D
:100E2000001A9DED0B0A41EE000A30EEAA0AF0EE20
:100E300040AA6548D0ED000A644890ED001A9DED87
:100E40000A0A41EE000A30EE8B0AB0EE40BA604862
:100E500090ED000AB1EE400A20EE0A0A5D48D0ED9E
:100E6000000A00EEEA0A5C48D0ED000A00EECB0A68
:100E70005A48D0ED000A9FED5A1A40EE010AC0ED23
:100E8000000A90ED000A20EE0A0A5248D0ED000A4E
:100E900000EE8B0A5048D0ED000A00EEEA0A4C48FA
:100EA000D0ED000A9FED4E1A40EE010AC0ED000A97
:100EB0004A4890ED000A20EE2A0A4548D0ED000A83
:100EC00000EECB0A4448D0ED000A00EE8A0A414801
:100ED000D0ED000A9FED421A40EE010AC0ED000A73
:100EE0003E4890ED000A20EE0B0A3948D0ED000A8A
:100EF00000EEAA0A3748D0ED000A00EECA0A3648CA
:100F0000D0ED000A9FED361A40EE010AC0ED000A4E
:100F1000324890ED000AD0ED000A20EE200A2C485D
:100F2000D0ED000A90ED001A00EE810A2948D0EDBC
:100F3000000A90ED001A00EE810A2748D0ED000A61
:100F400090ED001A00EE810A10EE101A084609F022
:100F50008BFECDE900019DED000B06F031F88DED23
:100F6000020B9DED020B51EC100B09F073F908EE2A
:100F7000100AB5EEC08AF1EE10FA00D190E51748DC
:100F800090ED000AC0EE080AC0ED000A104890ED8E
:100F9000000AC0EE080AC0ED000A0E4890ED000AF3
:100FA000C0EE080AC0ED000A0B4890ED000AC0EE42
:100FB000080AC0ED000A00BF72E500005C040020D2
:100FC00060040020840400206404002080040020C9
:100FD0006C040020700400207404002068040020C9
:100FE0000AD7233B10B5292202490348FFF711FA1B
:100FF00010BD000000001E08345A002010B5292141
:10100000014800F003F810BD345A00202DE9F041EA
:1010100004460D46154800F009FE8046134E01F0C7
:10102000E3FE002012490860022008610846C0F86B
:1010300008800120C8600F490D4801F027FE08B163
:1010400000BFFEE708E027783A46002331461846FD
:1010500001F07EFE761C641C2800A5F10105F2D18A
:1010600001F06CFE0020BDE8F081000000001E08C9
:10107000884C0020E003002049480068012834D152
:101080004848006848490968084446490860474993
:1010900091ED0F0ABDEEC00A10EE100A002801DB28
:1010A000014600E04142424A1268914204DD414853
:1010B0000068401C3F4908603E4800683E49096896
:1010C000884212DB3D484069364908603B48406928
:1010D0003B49086000203249086001203949086016
:1010E0003949086000203349086036480068012803
:1010F0002ED12C4800682C490968401A29490860FB
:101100002A4991ED0F0ABDEEC00A10EE100A002820
:1011100001DB014600E04142254A1268914204DDAC
:101120002A480068401C294908602848006822496C
:10113000096888420CDB2148406925490860002085
:101140002049086001202349086000201F490860E9
:101150001D480068012822D11E48006801281ED1C0
:10116000174909681A4A1268881800EBD0714910AB
:10117000A1F5D0517C390B4A116011490968144A14
:101180001268881800EBD0714910A1F5D0517C3954
:10119000114A116000200C4908600E490860704730
:1011A00044010020300100202801002024560020A6
:1011B000580100200803002054010020204B00208B
:1011C00038010020480100204C0100200C030020C1
:1011D0003C010020500100205C01002000BFFEE720
:1011E00010B5024800F0CEFE10BD0000040500203E
:1011F00010B5024800F0C6FE10BD00000405002036
:1012000010B5024800F0BEFE10BD000044050020ED
:1012100010B5024800F0B6FE10BD000044050020E5
:1012200070B504460D46206800F5D87000EB051037
:10123000006800F00400616B8860606B806860B9D2
:10124000206800F5D87000EB0510006840F2FF71CF
:1012500001EA5050616B08600BE0206800F5D8701F
:1012600000EB051000686FF0604101EAD000616B8F
:101270004860206800F5D87000EB0510006800F0A9
:101280000200616BC860206800F5D87000EB0510A3
:10129000406800F00F00616B0861206800F5D870AD
:1012A00000EB05104068C0F30720616BC86120683F
:1012B00000F5D87000EB05108068616B0875206838
:1012C00000F5D87000EB05108068010A606B41756D
:1012D000206800F5D87000EB05108068010C606B89
:1012E0008175206800F5D87000EB05108068000E4D
:1012F000616BC875206800F5D87000EB0510C068F8
:10130000C1B2606B0176206800F5D87000EB051063
:10131000C068010A606B4176206800F5D87000EB68
:101320000510C068010C606B8176206800F5D870EC
:1013300000EB0510C068000E616BC8764DB9202027
:101340002168C8602068406920F002002168486177
:1013500008E02020216808612068406920F0100022
:101360002168486194F8380022281DD1206840691E
:1013700020F48070216848612068406920F4007082
:10138000216848612068406920F4806021684861D4
:101390002068406920F40060216848612068406945
:1013A00020F400402168486194F83800322803D1C5
:1013B000122084F8380002E0012084F8380020462A
:1013C00001F098F8002070BD10B50446206840690F
:1013D00020F001002168486194F8380012281DD1DE
:1013E0002068406920F48070216848612068406965
:1013F00020F40070216848612068406920F4806012
:10140000216848612068406920F4006021684861D3
:101410002068406920F400402168486194F8380051
:10142000322803D1222084F8380002E0012084F819
:101430003800204601F03CFA002010BD10B50446EB
:101440000B48407A90B10B48408901B20848A0F897
:1014500007100948408900B20549A1F80500552147
:101460000348817200214172FFF7C8FD10BD0000E2
:10147000345A00209C4A0020C84A00208F48407AF5
:10148000032828D18D48B0F90600404200EE100A2A
:10149000B8EEC00ADFED8A0A60EE200A894890EDB6
:1014A000000AB6EE001A00EE810A80ED000A8348B9
:1014B000B0F9040000EE100AB8EEC00ADFED820AAF
:1014C00060EE200A814890ED000AB6EE001A00EEA8
:1014D000810A80ED000A7948407A012802D17C49CE
:1014E000087002E000207A490870794800780128E5
:1014F0007AD17848807820B17748008808B10120F7
:1015000000E0002000286FD174480078D0B16D4809
:1015100090ED000A7248D0ED000A30EE200A6948CA
:1015200080ED000AD0ED000A6E4890ED000AB8EE9A
:10153000C00AF4EEC00AF1EE10FA1DDB0020674984
:10154000087019E05F4890ED000A6548D0ED000A88
:1015500030EE600A5B4880ED000AD0ED000A624878
:1015600090ED000AB8EEC00AF4EEC00AF1EE10FAEF
:1015700002D80120594908705C480078D0B153481E
:1015800090ED000A5A48D0ED000A30EE200A4F488C
:1015900080ED000AD0ED000A564890ED000AB8EE42
:1015A000C00AF4EEC00AF1EE10FA1DDB00204F492C
:1015B000087019E0454890ED000A4D48D0ED000A4A
:1015C00030EE600A414880ED000AD0ED000A4A483A
:1015D00090ED000AB8EEC00AF4EEC00AF1EE10FA7F
:1015E00002D80120414908703948007868B139486B
:1015F000807820B13848008808B1012000E0002040
:10160000012802D13D49087002E000203B490870E2
:1016100000BF2E48D0ED000A374890ED000AB8EE22
:10162000C00AF4EEC00AF1EE10FA06D290ED000AFC
:10163000B8EEC00A254880ED000A2448D0ED000A23
:101640002C4890ED000AB8EEC00AF4EEC00AF1EEA4
:1016500010FA06DD90ED000AB8EEC00A1B4880EDD6
:10166000000A00BF00BF1748D0ED000A1E4890EDE9
:10167000000AB8EEC00AF4EEC00AF1EE10FA06D283
:1016800090ED000AB8EEC00A0E4880ED000A0D4841
:10169000D0ED000A134890ED000AB8EEC00AF4EE4F
:1016A000C00AF1EE10FA06DD90ED000AB8EEC00AAD
:1016B000044880ED000A00BF70470000AA4C0020DB
:1016C000CDCC4C3D300000200AD7A33C20000020A8
:1016D000FE0000209C4C00209A0400200201002003
:1016E00004010020480000204C00002003010020DD
:1016F000080100205C000020600000201001002094
:1017000010B5024801F0EAF810BD0000CC0C002032
:1017100010B5024801F0E2F810BD00006C0C00208A
:1017200010B5024801F0DAF810BD00002C0D0020C1
:1017300010B5024801F0D2F810BD00000C0C0020DA
:101740000146087810381823B0FBF3F20848805C93
:10175000C865032A05D908686FF30900001D88656C
:1017600003E008686FF309008865886D7047000022
:10177000E8AD0008014600208A6A8B6903BB32B1DC
:10178000012A0CD0022A10D0032A17D115E0CB6A07
:1017900003F08073B3F1807F00D101200FE0CB6AAA
:1017A000B3F1C07F00D1012009E0CB6A03F0807360
:1017B000B3F1807F00D1012001E000E000BF35E0FF
:1017C0008B69B3F5005F1BD132B1012A06D0022A22
:1017D0000CD0032A12D10BE0012010E0CB6A03F0F9
:1017E0008073B3F1807F00D1012008E0012006E082
:1017F000CB6AB3F1C07F00D1012000E000BF15E04B
:1018000032B1012A05D0022A04D0032A0CD103E008
:1018100000BF00BF012008E0CB6A03F08073B3F182
:10182000807F00D1012000E000BF00BF704730B5CD
:101830000468246824F4802405682C6004686360CC
:101840008468402C04D10468A2600468E16003E06D
:101850000468A1600468E26030BD70470A7852B93C
:101860004A7842B98A7832B9CA7822B90A7912B963
:101870004A7902B970470A784B7842EA0322C2F3E8
:101880000A0202800288A2F5806212B202804A78BF
:10189000D2108B7842EA4312C2F30A024280428895
:1018A000A2F5806212B242808A789211CB7842EA25
:1018B00083020B7942EA8322C2F30A028280828881
:1018C000A2F5806212B282800A7952104B7942EA04
:1018D000C312C2F30A02C280C288A2F5806212B2A9
:1018E000C2804A791211920802724A79C2F3011237
:1018F00042728A79CB7942EA032212B242810A7A91
:101900004B7A42EA032213B283818A7ACB7A42EA83
:10191000032213B2C3810B7B03744B7B43748A7B1A
:10192000CB7B42EA0322428200BFA3E700BFFEE76F
:1019300010B5002201B909E0012901D10A0205E030
:10194000022901D10A0201E04FF440720B2800D9AC
:10195000001D114B1B6823F440730F4C236023467A
:101960001B681343236023461B6823F0F80323609E
:1019700023461B68F82494FAA4F4B4FA84F400FA19
:1019800004F444F002042343034C236023461B6801
:1019900043F48033236010BD103C02401C480068B3
:1019A00000F40070B0B11A48006820F400701849C3
:1019B000086000BF0846006840F400600860084600
:1019C000006820F40060086000BF0846006840F42A
:1019D000007008600E48006800F48060B0B10C48E8
:1019E000006820F480600A49086000BF084600686B
:1019F00040F4805008600846006820F48050086079
:101A000000BF0846006840F480600860704700002E
:101A1000003C0240134A126822F44072114B1A60D3
:101A2000032906D11A461268DB131A430D4B1A60BC
:101A30000EE0012906D10B4A126842F00402094B5C
:101A40001A6005E0074A126842F40042054B1A602A
:101A5000044A12684FF4803343EA00231A43014BCF
:101A60001A607047103C0240074A126822F4407224
:101A7000054B1A601A4612681A601A46126842F03C
:101A800001021A6001707047103C024010B509490C
:101A9000096821F44071074C21602146096841F42E
:101AA000407121602146096841F001012160026016
:101AB000436010BD103C0240084A126822F4407294
:101AC000064B1A601A46126842F480721A601A466F
:101AD000126842F001021A6001807047103C024017
:101AE000084A126822F44072064B1A601A461268BD
:101AF00042F400721A601A46126842F001021A603B
:101B000001607047103C02402A480068C0F3001092
:101B100040B12948C06940F010002749C861102031
:101B20002449086023480068C0F3401040B12248AF
:101B3000C06940F008002049C86120201D490860A4
:101B40001C480068C0F3801040B11B48C06940F0D9
:101B500004001949C861402016490860154800680A
:101B6000C0F3C01040B11448C06940F002001249EF
:101B7000C86180200F4908600E480068C0F300204B
:101B800048B10D48C06940F001000B49C8614FF4ED
:101B900080700849086007480068C0F3400040B101
:101BA0000548C06940F020000349C861022001498E
:101BB000086070470C3C02407C4A002070B5044627
:101BC000002500201749C86101F040FA054609E0E8
:101BD000601C38B124B101F039FA401BA04201D990
:101BE000032070BD10480068C0F300400028EFD10A
:101BF0000D48006800F0010010B101200A4908609A
:101C00000948006800F4F970B0F5F97F01D10120AE
:101C100000E0002018B1FFF777FF0120E1E7002086
:101C2000DFE700007C4A00200C3C02400146002017
:101C30005C4A914203D2B1F1006F00D3B0E05A4A3E
:101C4000914204D2574A914201D30120A8E0574A59
:101C5000914204D2544A914201D30220A0E0544A56
:101C6000914204D2514A914201D3032098E0514A53
:101C7000914204D24E4A914201D3042090E04E4A50
:101C8000914204D24B4A914201D3052088E04B4A4D
:101C9000914204D2484A914201D3062080E0484A4A
:101CA000914204D2454A914201D3072078E0454A47
:101CB000914204D2424A914201D3082070E0424A44
:101CC000914204D23F4A914201D3092068E03F4A41
:101CD000914204D23C4A914201D30A2060E0B1F122
:101CE000016F04D2394A914201D30B2058E0384A9F
:101CF000914204D2B1F1016F01D30C2050E0354A7A
:101D0000914204D2324A914201D30D2048E0324A36
:101D1000914204D22F4A914201D30E2040E02F4A33
:101D2000914204D22C4A914201D30F2038E02C4A30
:101D3000914204D2294A914201D3102030E0294A2D
:101D4000914204D2264A914201D3112028E0264A2A
:101D5000914204D2234A914201D3122020E0234A27
:101D6000914204D2204A914201D3132018E0204A24
:101D7000914204D21D4A914201D3142010E01D4A21
:101D8000914204D21A4A914201D3152008E01A4A1E
:101D9000914204D2174A914201D3162000E0172045
:101DA00070470000004000080080000800C00008E4
:101DB00000000108000002080000040800000608F6
:101DC0000000080800000A0800000C0800000E08C7
:101DD000004010080080100800C010080000110822
:101DE000000012080000140800001608000018087F
:101DF00000001A0800001C0800001E0830B5034649
:101E000013B94FF6FF7030BD09E013F8014B82EAB9
:101E10000400C0B2054D35F8100080EA2222080007
:101E2000A1F10101F1D11046EDE7000000AF00087B
:101E300030B5034605E013F8010B80EA02040448BC
:101E4000025D0800A1F10105A9B2F4D1104630BD30
:101E5000FFAD000830B5034600220C7D012000FADA
:101E600004F24648006840F00100444C20602046DF
:101E7000006820F47C502060204600684C6A40EAEC
:101E800004203E4C20603D481C30006890433B4C91
:101E90001C342060C869D8B938480C3000689043B9
:101EA000364C0C342060888880B28C8940EA044427
:101EB000324840304D6940F83540088880B20C897E
:101EC00040EA04442D4840304D6900EBC5004460B1
:101ED000C86901281BD129480C3000681043274CE1
:101EE0000C342060888880B20C8840EA044423487F
:101EF00040304D6940F83540888980B20C8940EA0D
:101F000004441E4840304D6900EBC50044608869B8
:101F100038B91A48001D00689043184C241D2060F1
:101F200006E01648001D00681043144C241D206074
:101F3000086930B911481430006890430F4C1434CC
:101F400020600869012806D10C481430006810434D
:101F50000A4C14342060086A012806D107481C3056
:101F600000681043054C1C3420600448006820F0D1
:101F70000100024C2060002030BD000000660040DF
:101F8000704700002DE9F041044600250026002797
:101F90002068406900F0010018B320688068694932
:101FA0000840884201D1012000E000200546206859
:101FB000806865490840884201D1012000E0002086
:101FC00006462068806861490840884201D10120A6
:101FD00000E0002007460DB906B917B12046FFF70B
:101FE000F3F92068C06800F0030520684069C0F379
:101FF000400625B11EB100212046FFF711F92068E7
:10200000006900F0030520684069C0F3001625B19F
:102010001EB101212046FFF703F92068806900F016
:10202000010520684069C0F3002620684069C0F3BC
:10203000C0372DB126B11FB1E06B40F00100E06365
:1020400020688069C0F3400520684069C0F34026DD
:1020500020684069C0F3C0372DB126B11FB1E06BD5
:1020600040F00200E06320688069C0F380052068CA
:102070004069C0F3802620684069C0F3C0372DB1A5
:1020800026B11FB1E06B40F00400E0632068806976
:1020900000F0700008B9012000E00020054620682B
:1020A0004069C0F3C02620684069C0F3C03795BBC3
:1020B0008EB387B32068806900F07005402D1BD077
:1020C00006DC102D09D0202D0CD0302D24D10EE0AF
:1020D000502D16D0602D1FD118E0E06B40F00800A5
:1020E000E0631AE0E06B40F01000E06315E0E06BA5
:1020F00040F02000E06310E0E06B40F04000E0635F
:102100000BE0E06B40F08000E06306E0E06B40F441
:102110008070E06301E007E000BF00BF20688069D5
:1021200020F0700021688861E06B40B104202168D4
:102130004860012084F838002046FFF721FFBDE801
:10214000F0810000030000040003000800000310F9
:1021500070B50446032600250CB9012070BD94F823
:10216000380028B9002084F83900204600F0D0F863
:10217000022084F838002068006820F002002168FE
:1021800008602068006840F001002168086000F0E5
:102190005DFF05460EE000F059FF401B0A2809D9F3
:1021A000032084F8380000BF002084F8390000BF05
:1021B0000320D3E72068406800F001000028EAD03F
:1021C0002068406800F0010008B9002692E0A0698C
:1021D000012806D12068006840F08000216808606E
:1021E00005E02068006820F0800021680860E06950
:1021F000012806D12068006840F04000216808608E
:1022000005E02068006820F0400021680860206A2E
:10221000012806D12068006840F02000216808608D
:1022200005E02068006820F0200021680860606AEE
:10223000012806D12068006840F01000216808607D
:1022400005E02068006820F0100021680860A06A9E
:10225000012806D12068006840F008002168086065
:1022600005E02068006820F0080021680860E06A46
:10227000012806D12068006840F004002168086049
:1022800005E02068006820F0040021680860D4E9B7
:102290000201084321690843616908436168491ED6
:1022A00008432168C8612068006820F001002168A7
:1022B000086000F0CBFE05460EE000F0C7FE401BB4
:1022C0000A2809D9032084F8380000BF002084F8C8
:1022D000390000BF032041E72068406800F001009A
:1022E0000028EAD12068406800F0010008B100260B
:1022F00000E00126012E06D10020E063012084F8D1
:10230000380000202AE7042084F83800012025E75F
:1023100010B586B0044645492068884237D1444804
:102320000068401C424908600846006801280FD137
:1023300000BF002000903F48006840F000703D4919
:1023400008600846006800F00070009000BF00BF01
:1023500003200190022002900020039003200490AB
:102360000920059001A9344800F054FD0022052100
:10237000132000F015FF132000F005FF00220521B7
:10238000142000F00DFF142000F0FDFE4BE02B495F
:102390002068884247D100BF00200090254800688F
:1023A00040F08060234908600846006800F08060C3
:1023B000009000BF00BF1E480068401C1C49086018
:1023C0000846006801280FD100BF0020009019487E
:1023D000006840F00070174908600846006800F087
:1023E0000070009000BF00BF4FF4405001900220E9
:1023F000029000200390032004900920059001A979
:102400000F4800F007FD002211463F2000F0C8FEF3
:102410003F2000F0B8FE00221146402000F0C0FE30
:10242000402000F0B0FE06B010BD00000064004087
:102430000400002040380240000C024000680040C8
:102440000004024010B50246002392F83830012BF8
:1024500001D0122B49D100BF92F83900012801D1D7
:10246000022010BD012082F8390000BF92F8380028
:10247000122803D1322082F8380002E0222082F8AC
:1024800038000020D0631068406940F48070146800
:1024900060611068406940F4007014686061106801
:1024A000406940F48060146860611068406940F4DD
:1024B0000060146860611068406940F4004014686E
:1024C000606100BF002082F8390000BF31B9106898
:1024D000406940F002001468606108E010684069DB
:1024E00040F010001468606101E00220B9E70020AC
:1024F000B7E7000010B50446606B006840F20622A2
:10250000811A90425CD007DCA0F2012058B101286A
:102510006BD0042876D14BE0012959D00B295FD02C
:102520000D296FD169E0606B0078401E3E4908704C
:102530000846007800EB400101EBC0003B4901EB8D
:102540008000816A3848007800EB400202EBC0004E
:10255000364A02EB8000806A401C334A127802EB54
:10256000420303EBC202314B03EB82029062322939
:102570000CD82D49097801EB410202EBC1011A4642
:1025800002EB8100214605F07AF90BE02649097833
:1025900001EB410202EBC101244A02EB810021461A
:1025A00005F034F920490978881C05F0B9F829E0CC
:1025B00021461F4805F02AF9092005F0B1F821E06D
:1025C00021461C4805F022F90A2005F0A9F819E077
:1025D0002146194805F01AF90B2005F0A1F811E081
:1025E0002146164805F0BAF80CE02146144805F0DB
:1025F0000DF9032005F094F804E02146114804F099
:10260000FAFD00BF00BF10480068406940F00200BA
:102610000D49096848610D480068406940F00200B2
:102620000A490968486110BDDC0300204C4B0020BA
:10263000C84A00209C4A0020F44A0020FC4B00209D
:10264000204B0020CC03002004050020440500207E
:102650002DE9F04104460E460525002720688068D4
:1026600000F08060B0F1806F0DD02068806800F0CD
:102670000060B0F1006F06D02068806800F08050E4
:10268000B0F1805F7ED100BF94F83900012802D1FB
:102690000220BDE8F081012084F8390000BF94F8E1
:1026A0003800222803D1322084F8380002E01220BA
:1026B00084F838002068806800F08060B0F1806F96
:1026C00001D1002509E02068806800F00060B0F1C9
:1026D000006F01D1012500E00225206800F5C070DF
:1026E00000EB0510006800F00101206800F5C070E3
:1026F00000EB05100160206B806898B9206800F538
:10270000C07000EB05100068216BC968226B12884D
:1027100041EA42510843216801F5C07101EB0511FE
:10272000086015E0206800F5C07000EB0510006837
:10273000216B8968226B526841EAC201226BD26820
:1027400011430843216801F5C07101EB05110860D0
:10275000206B007C00F00F00216B0861206800F501
:10276000C07000EB0510406820F00F01206800F5F4
:10277000C07000EB05104160206800F5C07000EBF0
:10278000051000E088E04068216B09690843216872
:1027900001F5C07101EB05114860206BC07D010699
:1027A000206B807D41EA0041206B407D41EA0020A2
:1027B000216B097D0843216801F5C07101EB05110A
:1027C0008860206BC07E0106206B807E41EA00415C
:1027D000206B407E41EA0020216B097E084321687E
:1027E00001F5C07101EB0511C860206800F5C070EB
:1027F00000EB0510006840F00101206800F5C07092
:1028000000EB0510016000F021FC074611E0701C90
:1028100078B126B100F01AFCC01BB04209D90320E0
:1028200084F8380000BF002084F8390000BF03207E
:102830002FE74DB9206880681A490840884201D1C5
:10284000012016E0002014E0012D09D120688068E5
:1028500015490840884201D101200AE0002008E023
:102860002068806811490840884201D1012000E0B9
:1028700000200028CBD094F83800322803D1222041
:1028800084F8380002E0012084F8380000BF0020FE
:1028900084F8390000BFFCE6042084F838000120E9
:1028A000F7E6000003000004000300080000031026
:1028B0007047014691F83500022803D08020486512
:1028C00001207047052081F835000868006820F075
:1028D00001000A6810600020F3E70000F8B5044624
:1028E000002000908D4800684FF41651B0FBF1F7BE
:1028F000A56D2E6894F85C1008208840304098B18F
:102900002068006800F0040070B12068006820F0C2
:1029100004002168086094F85C1008208840A860D2
:10292000606D40F00100606594F85C107C48884060
:10293000304068B12068406900F0800040B194F8F0
:102940005C1077488840A860606D40F002006065C8
:1029500094F85C107248C01C8840304070B1206808
:10296000006800F0020048B194F85C106C48C01C8C
:102970008840A860606D40F00400606594F85C10C9
:1029800010208840304078B32068006800F00800CC
:1029900050B394F85C1010208840A860206800684C
:1029A00000F4802080B12068006800F4002028B97D
:1029B000206CC8B12046216C884715E0A06C98B106
:1029C0002046A16C88470FE02068006800F4807002
:1029D00028B92068006820F0080021680860206C91
:1029E00010B12046216C884794F85C102020884064
:1029F0003040002865D02068006800F010000028F2
:102A00005FD094F85C1020208840A86094F83500CE
:102A1000052828D12068006820F016002168086089
:102A20002068406920F0800021684861206C08B966
:102A3000A06C28B12068006820F0080021680860B8
:102A400094F85C103F208840A86000BF002084F804
:102A5000340000BF012084F83500206D10B12046FD
:102A6000216D8847F8BD2068006800F4802080B19F
:102A70002068006800F4002028B9606C10B120467E
:102A8000616C88471DE0E06BD8B12046E16B884758
:102A900017E02068006800F4807068B9206800685A
:102AA00020F010002168086000BF002084F8340086
:102AB00000BF012084F83500E06B10B12046E16BC7
:102AC0008847606D38B3606D00F00100F0B10520FB
:102AD00084F835002068006820F001002168086053
:102AE00000BF0098401C0090B84200D905E0206863
:102AF000006800F001000028F3D100BF00BF0020F3
:102B000084F8340000BF012084F83500E06C10B177
:102B10002046E16C884700BFA4E70000680300205E
:102B2000010080002DE9F0410446002500F08EFAF6
:102B3000074614B90120BDE8F081606A00B100BF0A
:102B400000BF002084F8340000BF022084F8350064
:102B50002068006820F00100216808600AE000F0A9
:102B600075FAC01B052805D920206065032084F86C
:102B70003500E0E72068006800F001000028EED191
:102B80002068056820480540D4E901010843E16850
:102B900008432169084361690843A1690843E16961
:102BA0000843216A08430543606A042803D1D4E935
:102BB0000B0108430543206805602068456925F03E
:102BC0000705606A0543606A04280BD1A06A0543C3
:102BD0002046FEF7CFFD28B140206065012084F833
:102BE0003500A8E7206845612046FEF7A9FD0646A6
:102BF00094F85C103F208840B060002060650120A0
:102C000084F83500002096E73F8010F02DE9F04170
:102C100004460D4616461F464FF0000800BF94F8C4
:102C20003400012802D10220BDE8F081012084F89F
:102C3000340000BF94F83500012811D1022084F837
:102C40003500002060653B46324629462046FEF7A7
:102C5000EEFD2068006840F001002168086006E091
:102C600000BF002084F8340000BF4FF00208404647
:102C7000DAE731B5002400F0E9F9044600BF00F0BE
:102C8000E5F9001B00998842F9D338BD2DE9F041E0
:102C900004460E460127002500BF2648007E012875
:102CA00002D10220BDE8F08101202249087600BF50
:102CB0004CF25030FEF782FF0746002F32D1401E03
:102CC00030602068012810D1207C6168FEF7A2FEE8
:102CD0004CF25030FEF772FF07461748006848F282
:102CE00004018843144908601AE0A56812E0217CB9
:102CF0002846FEF71DFE4CF25030FEF75FFF0746F8
:102D00000D48006820F0FA000B4908600FB13560EB
:102D100005E06D1CD4E902100844A842E7D800BFC2
:102D2000FEF73CFE00BF00200249087600BF38468F
:102D3000B8E700007C4A0020103C024003480068CD
:102D400040F000400149086000207047103C0240FC
:102D50002DE9F04106460F4614461D464FF0010886
:102D600000BF1F48007E012802D10220BDE8F0818B
:102D700001201B49087600BF4CF25030FEF71EFFC1
:102D80008046B8F1000F23D126B9E1B23846FEF7EC
:102D90006BFE12E0012E04D1A1B23846FEF78CFE84
:102DA0000BE0022E04D121463846FEF799FE04E0DE
:102DB00022462B463846FEF769FE4CF25030FEF7AD
:102DC000FDFE80460748006820F0010005490860C4
:102DD00000BF00200249087600BF4046C6E7000059
:102DE0007C4A0020103C02400748006800F0004088
:102DF00030B1064804490C3908600548086001E014
:102E0000012070470020FCE7103C02402301674589
:102E1000AB89EFCDF8B502460B4600250024002013
:102E20000021E6E0012606FA01F51E6806EA05041F
:102E3000AC4273D15E68022E02D05E68122E13D1AE
:102E4000CF0802F1200656F827004E07F70E0F268E
:102E5000BE40B0434F07FF0E1E69BE403043CF084F
:102E600002F1200646F8270010684F000326BE40F6
:102E7000B0431E7906F003064F00BE403043106099
:102E80005E68012E08D05E68022E05D05E68112EA5
:102E900002D05E68122E13D190684F000326BE4008
:102EA000B0434F00DE68BE4030439060506801265A
:102EB0008E40B0431E79C6F300168E4030435060FA
:102EC000D0684F000326BE40B0434F009E68BE400E
:102ED0003043D0605E6806F08056B6F1805FA8D1BE
:102EE00000BF00260096454E366846F48046434FA4
:102EF0003E603E46366806F48046009600BF00BF3E
:102F00003F4E8F0856F827008E07370F0F26BE401A
:102F1000B0433C4EB24202D100262EE068E03A4E69
:102F2000B24201D1012628E0384EB24201D1022638
:102F300023E0374EB24201D103261EE0354EB242A5
:102F400001D1042619E0344EB24201D1052614E025
:102F5000324EB24201D106260FE0314EB24201D1CB
:102F600007260AE02F4EB24201D1082605E02E4E78
:102F7000B24201D1092600E00A268F073F0FBE406A
:102F800030431F4E8F0846F82700284E3068A04374
:102F90005E6806F48036B6F5803F00D12043234EAC
:102FA0003060361D3068A0435E6806F40036B6F522
:102FB000003F00D120431D4E361D3060361D306865
:102FC000A0435E6806F48016B6F5801F00D120434A
:102FD000164E08363060361D3068A0435E6806F431
:102FE0000016B6F5001F00D12043104E0C3630609D
:102FF000491C1029FFF416AFF8BD00004438024008
:10300000083801400000024000040240000802406D
:10301000000C024000100240001402400018024060
:10302000001C02400020024000240240003C0140FD
:10303000024613690B400BB1012000E000207047ED
:103040000AB1816101E00B048361704701480068A7
:1030500070470000C803002002480068401C014976
:1030600008607047C803002010B50D48006840F4A0
:1030700000700B4908600846006840F480600860F2
:103080000846006840F480700860032000F0C6F82D
:10309000002000F007F800F04BF8002010BD000001
:1030A000003C024070B588B004460025002600228E
:1030B0002146362000F074F8362000F064F800BF96
:1030C000002001901648006840F010001449086084
:1030D0000846006800F01000019000BF00BF02A980
:1030E00003A800F0E9F900F00FFA45000D48B5FB20
:1030F000F0F0461E0C480D49086040F2E7310B48DD
:10310000C160466000210161816000F05DFE20B970
:10311000064800F074FE08B070BD0120FBE7000017
:103120004038024040420F0000100040C804002018
:1031300010B5032000F072F8002211466FF00B006A
:1031400000F02EF8002211466FF00A0000F028F877
:10315000002211466FF0090000F022F8002211460B
:10316000501F00F01DF800221146101F00F018F843
:1031700000220F21901E00F013F800220F21501E94
:1031800000F00EF810BD00BF00F01F0201219140B9
:103190004209920002F1E022C2F8001100BF70471C
:1031A0002DE9F05F80460D461646002702F006FA2C
:1031B000074639462A46334601F00700C0F1070AA0
:1031C000BAF1040F02D94FF0040A01E0C0F1070A76
:1031D000D14600F1040ABAF1070F02D24FF0000AFB
:1031E00001E0A0F1030AD4464FF0010A0AFA09FAF5
:1031F000AAF1010A0AEA020A0AFA0CFA4FF0010BD4
:103200000BFA0CFBABF1010B0BEA030B4AEA0B04C4
:103210002146404602F0DAF9BDE8F09F00BF00F019
:103220000702064B19684FF6FF031940044B0B4386
:1032300043EA0221014B196000BF70470CED00E02A
:103240000000FA0538B5002400BF00200090234894
:10325000006840F08050214908600846006800F08E
:103260008050009000BF00BF0120010491FAA1F13D
:10327000B1FA81F11A4A42F82100FFF7E7FE04464D
:1032800007E0FFF7E3FE001BB0F57A7F01D90320CA
:1032900038BD1448406800F48030B0F5803FF0D16C
:1032A0000120410491FAA1F1B1FA81F10C4A42F8EE
:1032B0002100FFF7CBFE044607E0FFF7C7FE001B27
:1032C000B0F57A7F01D90320E2E70648406800F4B0
:1032D0000030B0F5003FF0D10020D9E7403802407F
:1032E00000000E420070004070B504460D460026F6
:1032F0006D48006800F00F00A84209D26A490D70BD
:103300000846006800F00F00A84201D0012070BDFF
:10331000207800F00200022807D16448006820F0FD
:10332000F000A168084361490860207800F00100BE
:10333000002877D06068012807D15C480838006809
:10334000C0F34040B8B90120E1E76068022802D02C
:103350006068032807D1554808380068C0F340600A
:1033600048B90120D3E7514808380068C0F340004D
:1033700008B90120CBE74D48006820F003006168E0
:1033800008434A490860FFF761FE06466068012865
:1033900010D108E0FFF75AFE801B41F288318842C5
:1033A00001D90320B3E74148006800F00C0004286D
:1033B000F0D137E06068022810D108E0FFF746FE40
:1033C000801B41F28831884201D903209FE73748AA
:1033D000006800F00C000828F0D123E060680328A2
:1033E00010D108E0FFF732FE801B41F2883188429D
:1033F00001D903208BE72D48006800F00C000C2851
:10340000F0D10FE008E0FFF721FE801B41F2883188
:10341000884201D903207AE72448006800F00C00B4
:103420000028F0D12048006800F00F00A84209D918
:103430001D490D700846006800F00F00A84201D039
:10344000012064E7207800F00400042807D1174821
:10345000006820F4E050E1680843144908602078CF
:1034600000F00800082808D11048006820F46040E7
:10347000216940EAC1000D49086000F071F80B496C
:10348000096801F0F001F02292FAA2F2B2FA82F297
:10349000D140074A515CC840064908600020FFF748
:1034A00001FE002033E70000003C024008380240E3
:1034B000D8AD0008680300200F2202600D4A126890
:1034C00002F0030242600B4A126802F0F0028260CE
:1034D000084A126802F4E052C260064A126802F416
:1034E0006042D2080261044A126802F00F020A60C8
:1034F0007047000008380240003C02400148006864
:10350000704700006803002000B5FFF7F7FF074988
:10351000096801F4E0514FF4E05292FAA2F2B2FAD3
:1035200082F2D140024A515CC84000BD08380240D6
:10353000D8AD000800B5FFF7E1FF0749096801F4BD
:1035400060414FF4604292FAA2F2B2FA82F2D140A4
:10355000024A515CC84000BD08380240D8AD00089E
:1035600070B50021002200230020274C246804F0BD
:103570000C0424B1042C04D0082C41D103E02348CE
:1035800040E023483EE0204C241F246804F03F0123
:103590001D4C241F246804F4800484B11C4CB4FB2B
:1035A000F1F5194C241F246847F6C076344096FA8A
:1035B000A6F6B6FA86F6F44005FB04F20FE0134CCB
:1035C000B4FBF1F5104C241F246847F6C076344054
:1035D00096FAA6F6B6FA86F6F44005FB04F20A4C13
:1035E000241F246804F440344FF4403595FAA5F5BF
:1035F000B5FA85F5EC40641C6300B2FBF3F001E022
:10360000024800BF00BF70BD083802400024F4002B
:10361000001BB70038B504460025207800F00100F3
:10362000002848D0DE48006800F00C0004280DD0C7
:10363000DB48006800F00C00082811D1D848001FB2
:10364000006800F48000B0F5800F09D1D448083834
:103650000068C0F3404070B3606860BB012038BDB3
:103660002079CF49891F0870606890B1FFF7EEFCA0
:10367000054606E0FFF7EAFC401B642801D9032059
:10368000EDE7C74808380068C0F340400028F1D093
:1036900011E0FFF7DBFC054606E0FFF7D7FC401B17
:1036A000642801D90320DAE7BD4808380068C0F370
:1036B00040400028F1D1207800F00200022869D1B2
:1036C000B748006800F00C0058B1B548006800F039
:1036D0000C00082821D1B248001F006800F48000C7
:1036E000D8B9AF4808380068C0F3400020B1E0689E
:1036F000012801D00120B2E7A9480838006820F06D
:10370000F800F82292FAA2F2B2FA82F2216991400C
:103710000843A349083908603CE0E06828B3012069
:10372000A0490860FFF792FC054606E0FFF78EFC13
:10373000401B022801D9032091E799480838006806
:10374000C0F340000028F1D095480838006820F008
:10375000F800F82292FAA2F2B2FA82F221699140BC
:1037600008438F490839086014E000208D4908603B
:10377000FFF76CFC054606E0FFF768FC401B0228DB
:1037800001D903206BE7864808380068C0F3400081
:103790000028F1D1207800F0080008282CD16069B9
:1037A000A8B1012080490860FFF750FC054606E0FB
:1037B000FFF74CFC401B022801D903204FE7784853
:1037C0006C300068C0F340000028F1D014E0002005
:1037D00075490860FFF73AFC054606E0FFF736FC3E
:1037E000401B022801D9032039E76D486C3000687E
:1037F000C0F340000028F1D1207800F00400042834
:1038000057D100BF0020009065483830006840F074
:1038100080506349383108600846006800F08050E5
:10382000009000BF00BF6148006840F480705F49AD
:103830000860FFF70BFC054606E0FFF707FC401B9E
:10384000022801D903200AE75848006800F4807074
:103850000028F2D0207A524968310870A068A0B1DF
:10386000FFF7F4FB054608E0FFF7F0FB401B41F2D1
:103870008831884201D90320F1E649486830006860
:10388000C0F340000028EFD013E0FFF7DFFB054650
:1038900008E0FFF7DBFB401B41F28831884201D989
:1038A0000320DCE63E4868300068C0F34000002892
:1038B000EFD1A069F0B33A48006800F00C00082886
:1038C00069D0A069022850D1002036490866FFF768
:1038D000BDFB054606E0FFF7B9FB401B022801D9F6
:1038E0000320BCE62E4808380068C0F3406000287A
:1038F000F1D1D4E90701084347F6C07292FAA2F267
:10390000B2FA82F2616A914008430122A16AC2EBD5
:1039100051014FF4403292FAA2F2B2FA82F291408F
:1039200008434FF0706292FAA2F2B2FA82F2E16AB0
:10393000914000E031E008431949091F0860012067
:1039400018490866FFF782FB054606E0FFF77EFB95
:10395000401B022801D9032081E61148083800687D
:10396000C0F340600028F1D017E000200D49086640
:10397000FFF76CFB054606E0FFF768FB401B0228DB
:1039800001D903206BE6064808380068C0F34060A0
:103990000028F1D101E0012061E600205FE600008F
:1039A0000838024000004742800E47420070004045
:1039B00010B504460CB9012010BD606A00B900BF03
:1039C0000021A16294F8510028B9002084F8500029
:1039D000204600F033F8022084F851002068006887
:1039E00020F0400021680860D4E901010843E16843
:1039F00008432169084361690843218B01F4007180
:103A00000843E1690843216A0843A16A0843216821
:103A100008600421A06901EA1040616A0843216836
:103A200048602068C06920F400602168C8610020F7
:103A30006065012084F851000020BDE710B586B014
:103A400004461249206888421ED100BF0020009021
:103A50000F48006840F480100D490860084600686F
:103A600000F48010009000BF00BF4FF46070019020
:103A7000022002900020039003200490052005906E
:103A800001A90448FFF7C6F906B010BD0050014077
:103A900044380240001402402DE9FE4F04460D4612
:103AA00016461F46DDF830804FF0000A00200290D5
:103AB00081464FF0010B019000BF94F8500001289F
:103AC00002D10220BDE8FE8F012084F8500000BF23
:103AD000FFF7BCFA814694F851A060680290BAF1F1
:103AE000010F0BD00298B0F5827F04D1A06810B905
:103AF000BAF1040F02D002200190D2E00DB106B15C
:103B000017B901200190CCE094F85100012802D1AE
:103B1000052084F8510000206065A663E787A78729
:103B20002563E786A786206460642068006800F04B
:103B30004000402805D02068006840F0400021681F
:103B40000860E068B0F5006F43D1606810B1E08EA6
:103B5000012806D128882168C860AD1CE08E401E6F
:103B6000E0862FE0BBF1000F10D0E08E70B120682E
:103B7000806800F00200022808D128882168C86007
:103B8000AD1CE08E401EE0864FF0000BE08F68B168
:103B90002068806800F0010040B12068C068308073
:103BA000B61CE08F401EE0874FF0010B08F10100CA
:103BB00040B1FFF74BFAA0EB0900404502D30320C8
:103BC00001906EE0E08E0028CCD1E08F0028C9D1B2
:103BD00042E0606810B1E08E012806D128782168A3
:103BE00008736D1CE08E401EE0862FE0BBF1000FD5
:103BF00010D0E08E70B12068806800F002000228CA
:103C000008D115F8010B21680873E08E401EE0868C
:103C10004FF0000BE08F68B12068806800F0010071
:103C200040B12068C06806F8010BE08F401EE087B5
:103C30004FF0010B08F1010040B1FFF707FAA0EBCC
:103C40000900404502D3032001902AE0E08E0028BD
:103C5000CCD1E08F0028C9D1434601220221204661
:103C6000CDF8009001F02CFE10B10320019018E077
:103C70004A464146204601F00FFE20B10120019046
:103C8000202060650DE0A06850B900BF00200090C2
:103C90002068C068009020688068009000BF00BF66
:103CA00000BF012084F8510000BF002084F85000BC
:103CB00000BF019806E7042808D14FF0E021096908
:103CC00041F004014FF0E022116107E04FF0E021E4
:103CD000096921F004014FF0E0221161704770B5CD
:103CE00004462546681EB0F1807F01D301200FE015
:103CF000681E4FF0E02148610F214FF0FF3001F0C6
:103D000065FC00204FF0E021886107200861002059
:103D100070BD70477047024600BF92F83800012816
:103D200001D102207047012082F8380000BF022034
:103D300082F83900D1E9000318438B681843CB6837
:103D400018430B6918434B6918438B691843136870
:103D50005864012082F8390000BF002082F8380042
:103D600000BF00BFDEE7024600BF92F8380001281E
:103D700001D102207047012082F8380000BF0220E4
:103D800082F839001068406820F0700013685860AD
:103D9000106840680B6818431368586010688068A2
:103DA00020F0800013689860106880684B681843A2
:103DB00013689860012082F8390000BF002082F863
:103DC000380000BF00BFD5E710B504460CB901208C
:103DD00010BD94F8390028B9002084F83800204636
:103DE00000F00CF8022084F83900211D206801F051
:103DF000C1FE012084F839000020E9E77047014640
:103E00000868C06840F001000A68D060086800686F
:103E100040F001000A68106000207047704710B53C
:103E2000044620680069C0F34000D8B12068C0682B
:103E3000C0F34000B0B16FF00200216808610120BA
:103E400020762068806900F0030018B12046FFF753
:103E5000E5FF05E0204600F067F9204600F0AAFAE9
:103E60000020207620680069C0F38000D8B1206867
:103E7000C068C0F38000B0B16FF004002168086131
:103E8000022020762068806900F4407018B1204636
:103E9000FFF7C4FF05E0204600F046F9204600F099
:103EA00089FA0020207620680069C0F3C000D8B1EC
:103EB0002068C068C0F3C000B0B16FF0080021688E
:103EC0000861042020762068C06900F0030018B162
:103ED0002046FFF7A3FF05E0204600F025F9204625
:103EE00000F068FA0020207620680069C0F3001016
:103EF000D8B12068C068C0F30010B0B16FF01000F6
:103F000021680861082020762068C06900F44070AC
:103F100018B12046FFF782FF05E0204600F004F9C3
:103F2000204600F047FA002020762068006900F063
:103F3000010058B12068C06800F0010030B16FF096
:103F4000010021680861204600F05CFA20680069E1
:103F5000C0F3C01058B12068C068C0F3C01030B1C1
:103F60006FF08000216808612046FFF7D2FE2068CC
:103F70000069C0F3801058B12068C068C0F3801099
:103F800030B16FF0400021680861204600F052FA1D
:103F900020680069C0F3401058B12068C068C0F3C1
:103FA000401030B16FF02000216808612046FFF713
:103FB000B1FE10BD10B586B004464F492068884256
:103FC0001CD14FF440700190022002900020039019
:103FD00004900120059001A94848FEF71BFF4FF40B
:103FE000C040019002200290002003900490012024
:103FF000059001A94248FEF70DFF7AE02068B0F174
:10400000804F0DD10F2001900220029000200390DC
:1040100004900120059001A93848FEF7FBFE68E0F6
:104020003849206888420DD120200190022002905A
:104030000020039004900220059001A93248FEF769
:10404000E9FE56E03149206888420ED14FF47040B5
:10405000019002200290002003900490022005901D
:1040600001A92B48FEF7D6FE43E02A492068884282
:104070001BD10120019002200290002003900490A7
:104080000220059001A92448FEF7C4FE4FF4E05039
:1040900001900220029000200390049002200590DD
:1040A00001A91E48FEF7B6FE23E01D49206888429C
:1040B0000DD1E42001900220029000200390049092
:1040C0000320059001A91448FEF7A4FE11E015494C
:1040D000206888420DD14FF41070019002200290A8
:1040E0000020039004900920059001A90B48FEF7D9
:1040F00091FE06B010BD000000000140000002402B
:10410000001002400004004000040240000800408B
:10411000000C0240000C004000200240001C024045
:104120000004014000180040704770B504460D4679
:10413000164600BF94F83800012801D1022070BD56
:10414000012084F8380000BF022084F8390036B11D
:10415000042E1BD0082E31D00C2E5ED145E029460E
:10416000206801F0B1FD2068806940F008002168F6
:1041700088612068806920F00400216888612068D7
:104180008069296908432168886147E029462068D9
:1041900001F0D2FD2068806940F4006021688861E8
:1041A0002068806920F480602168886120688069C7
:1041B000296940EA0120216888612FE029462068AA
:1041C00001F0F6FD2068C06940F008002168C86170
:1041D0002068C06920F004002168C8612068C069B7
:1041E000296908432168C86118E02946206801F060
:1041F0001BFE2068C06940F400602168C861206827
:10420000C06920F480602168C8612068C06929699C
:1042100040EA01202168C86100E000BF00BF012022
:1042200084F8390000BF002084F8380000BF00BFC8
:1042300085E710B504460CB9012010BD94F839008B
:1042400028B9002084F83800204600F00DF802203C
:1042500084F83900211D206801F08CFC012084F8CD
:1042600039000020E9E7000008B54B4A0168914297
:104270000FD100BF002100914849096841F00101B8
:10428000464A11601146096801F00101009100BF22
:1042900081E00168B1F1804F11D100BF0021009190
:1042A0003E49091F096841F001013C4A121F116093
:1042B0001146096801F00101009100BF6BE0384A26
:1042C0000168914211D100BF002100913349091FBB
:1042D000096841F00201314A121F11601146096854
:1042E00001F00201009100BF55E02E4A01689142A1
:1042F00011D100BF002100912849091F096841F030
:104300000401264A121F11601146096801F00401D8
:10431000009100BF3FE0244A0168914211D100BFE3
:10432000002100911D49091F096841F008011B4A3D
:10433000121F11601146096801F00801009100BFC9
:1043400029E01A4A016891420FD100BF0021009173
:104350001249096841F00201104A116011460968CA
:1043600001F00201009100BF15E0114A016891427D
:1043700011D100BF002100910849091F096841F0CF
:104380004001064A121F11601146096801F0400100
:10439000009100BF00BF08BD00000140443802404A
:1043A0000004004000080040000C004000040140F0
:1043B000001800407047000030B504460D46012249
:1043C0002946206801F048FC0C492068884203D047
:1043D0000B492068884201D1012000E0002028B16B
:1043E0002068406C40F40040216848642068006800
:1043F00040F0010021680860002030BD000001404D
:104400000004014010B5044607492068884201D1E4
:10441000FEF722FE05492068884204D1044800784E
:10442000C0430349087010BD001000400014004054
:1044300008000020704770472DE9F04704462068C7
:1044400005682068C668206847694FF00008C146C3
:1044500005F00F08B8F1000F0AD105F0200038B1BF
:1044600006F0200020B1204601F075FDBDE8F08780
:10447000B8F1000F6DD007F0010018B906F4907084
:10448000002866D005F0010030B106F4807018B144
:10449000E06B40F00100E06305F0040030B107F08C
:1044A000010018B1E06B40F00200E06305F002008B
:1044B00030B107F0010018B1E06B40F00400E06398
:1044C00005F0080030B107F0010018B1E06B40F0D2
:1044D0000800E063E06B68B305F0200028B106F047
:1044E000200010B1204601F036FD20684069C0F37D
:1044F0008019E06B00F0080010B9B9F1000F22D06C
:10450000204601F0D5FC2068406900F04000B0B1C1
:104510002068406920F0400021684861606B50B11C
:104520001748616B0865606BFEF7C3F910B1606BEB
:10453000016D88470CE02046FFF77DFF08E020462C
:10454000FFF779FF04E02046FFF775FF0020E063E6
:104550008CE705F0800030B106F0800018B12046ED
:1045600001F0FAFE82E705F0400030B106F04000AD
:1045700018B1204601F0ACFC78E700BF76E70000F8
:104580009D5E000810B504460CB9012010BDA0695D
:1045900000B100E000BF94F8390028B9002084F889
:1045A0003800204600F028F8242084F839002068DC
:1045B000C06820F400502168C860204601F018FD52
:1045C0002068006920F490402168086120684069F3
:1045D00020F02A00216848612068C06840F400503B
:1045E0002168C8600020E063202084F8390084F846
:1045F0003A000020CAE7000010B586B0044694498E
:104600002068884243D100BF002000909148006894
:1046100040F010008F4908600846006800F0100064
:10462000009000BF00BFC020019002200290012036
:104630000390032004900720059001A98648FEF707
:10464000E9FB8648864908604FF000604860002119
:1046500083488160C1604FF4806101610021416144
:104660008161C16101624162FEF75CFA08B1FDF748
:104670005DF900BF7A486063846300BF00220521B2
:104680002520FEF78DFD2520FEF77DFDDDE0754937
:104690002068884245D100BF002000906D48001F6F
:1046A000006840F400306B49091F08600846006844
:1046B00000F40030009000BF00BF60200190022095
:1046C000029001200390032004900720059001A987
:1046D0006548FEF79FFB6548654908604FF000603C
:1046E0004860002162488160C1604FF480610161CF
:1046F000002141618161C16101624162FEF712FAEC
:1047000008B1FDF713F900BF59486063846300BF27
:10471000002211462620FEF743FD2620FEF733FD3A
:1047200093E054492068884247D100BF00200090A0
:104730004848001F006840F480204649091F08606F
:104740000846006800F48020009000BF00BF4FF4CE
:1047500040700190022002900120039003200490F9
:104760000720059001A94048FEF754FB3F486038F8
:10477000414908604FF00060486000213E48816078
:10478000C1604FF480610161002141618161C161BB
:1047900001624162FEF7C6F908B1FDF7C7F800BF34
:1047A00035486063846300BF002211462720FEF76E
:1047B000F7FC2720FEF7E7FC47E0304920688842F5
:1047C00043D100BF002000902248006840F0200044
:1047D000204908600846006800F02000009000BFF3
:1047E00000BF4FF48440019002200290012003900A
:1047F000032004900820059001A92148FEF70AFB38
:10480000164818381F4908608005486000211D4877
:104810008160C1604FF4806101610021416181616B
:10482000C16101624162FEF77DF908B1FDF77EF8D2
:1048300000BF14486063846300BF00220521472045
:10484000FEF7AEFC4720FEF79EFC06B010BD000050
:10485000001001404438024000040240406402401D
:104860000C0C002000440040000C02408860024014
:104870006C0C002000480040CC0C002000140140CB
:10488000001802402C0D002070472DE9F843044623
:104890000D4616461F464FF0000994F839002028AF
:1048A0005CD105B116B90120BDE8F88300BF94F8CA
:1048B0003800012801D10220F6E7012084F83800F1
:1048C00000BF0020E063212084F83900FEF7BEFB22
:1048D0008146A684E6842BE0E08C401EE084A0683C
:1048E000B0F5805F16D14B4600228021204600970C
:1048F00001F066FD08B10320D6E7A846B8F800002D
:10490000C0F3080021684860206908B9AD1C0FE0B9
:104910006D1C0DE04B46002280212046009701F0DF
:104920004FFD08B10320BFE715F8010B216848606F
:10493000E08C0028D0D14B46002240212046009731
:1049400001F03EFD08B10320AEE7202084F83900D5
:1049500000BF002084F8380000BFA5E70220A3E7CD
:10496000704700BFFEE7000010B504462A488442A5
:1049700007D12A492A48FCF771FF072002F0D0FE30
:1049800046E02848844203D1274803F0D7FA3FE0A5
:10499000264884423BD126480078532828D1244811
:1049A0004078244948702248807888702048C07830
:1049B000C8701F48007908711D48407948711C482B
:1049C000807988711A48C079C8711948007A0872CC
:1049D0001748407A48721648807A88721448C07A1C
:1049E000C8721348007B087332211148FBF74BFD56
:1049F00005F0F6FA10490860084600888988401AD0
:104A00000E4908800C4800680B49486000E000BF70
:104A1000204604F0A5FE10BD0C0B0020224D002006
:104A2000AA4C00208C0B00206C5A0020CC0B0020DC
:104A3000364D00209C4C0020F4030020FC03002095
:104A40002DE9F04304460D46DDE90767002000210B
:104A5000012041E0DFF8D8C13CF81080A0F1010C42
:104A6000DFF8CC9129F81C8009F1160C3CF8109065
:104A7000A0F1010CDFF8B88108F1160828F81C90A5
:104A800008F1160C3CF81090A0F1010C08F1160882
:104A900028F81C9008F1160C3CF81090A0F1010CBD
:104AA00008F1160828F81C9008F1160C3CF8109034
:104AB000A0F1010C08F1160828F81C9008F1160C5A
:104AC0003CF81090A0F1010C08F1160828F81C9091
:104AD00000F1010C0CF0FF000A28BBDBDFF850C12D
:104AE000ACF81240ACF82850ACF83E20ACF854308A
:104AF000ACF86A60ACF88070002008E0DFF830C1E4
:104B00003CF910C0614400F1010C0CF0FF000A28D0
:104B1000F4DB4FF00A0C91FBFCFC0FFA8CFCDFF885
:104B20001081A8F814C0002100200AE0DFF800C1BD
:104B30000CF1160C3CF910C0614400F1010C0CF0B2
:104B4000FF000A28F2DB4FF00A0C91FBFCFC0FFA85
:104B50008CF8DFF8DCC0ACF82A80002100200AE0E5
:104B6000DFF8CCC00CF12C0C3CF910C0614400F112
:104B7000010C0CF0FF000A28F2DB4FF00A0C91FB4D
:104B8000FCFC0FFA8CF8DFF8A8C0ACF840800021DC
:104B900000200AE0DFF898C00CF1420C3CF910C08C
:104BA000614400F1010C0CF0FF000A28F2DB4FF029
:104BB0000A0C91FBFCFC0FFA8CF8DFF874C0ACF81F
:104BC0005680002100200AE0DFF864C00CF1580C88
:104BD0003CF910C0614400F1010C0CF0FF000A2800
:104BE000F2DB4FF00A0C91FBFCFC0FFA8CF8DFF8BB
:104BF00040C0ACF86C80002100200AE0DFF830C033
:104C00000CF16E0C3CF910C0614400F1010C0CF089
:104C1000FF000A28F2DB4FF00A0C91FBFCFC0FFAB4
:104C20008CF8DFF80CC0ACF88280BDE8F08300009F
:104C30008C59002010B50446E006010E1C2003F03C
:104C400015FF10BD10B50446E006010E1B2003F051
:104C50000DFF10BD10B50E480E49086005204860D4
:104C600000210C488160C1604FF4003101614901AD
:104C70004161002181610121C16100210162416224
:104C80008162C162FDF764FA08B1FCF74FFE10BD06
:104C9000006400400405002010B50F480F4908606B
:104CA0000520486000210D4881604FF04071C160CF
:104CB0004FF400310161490141610021816101210D
:104CC000C161002101624162C1628162FDF740FA67
:104CD00008B1FCF72BFE10BD006800404405002021
:104CE00008B500BF002000901E48006840F4800016
:104CF0001C4908600846006800F48000009000BF6E
:104D000000BF00BF002000900846006840F400107B
:104D100008600846006800F40010009000BF00BF63
:104D2000002205210C20FEF73BFA0C20FEF72BFA9F
:104D3000002205211020FEF733FA1020FEF723FA97
:104D4000002205213920FEF72BFA3920FEF71BFA45
:104D5000002205213A20FEF723FA3A20FEF713FA43
:104D600008BD00003038024000B59FB014221F4932
:104D70001AA8FBF74EFB00211AA803F0F4FE1C4909
:104D8000086014221949143115A8FBF742FB0021D1
:104D900015A803F0E8FE14221449283110A8FBF7E7
:104DA00038FB002110A803F0DEFE14220F493C312D
:104DB0000BA8FBF72EFB00210BA803F0D4FE142256
:104DC0000A49503106A8FBF724FB002106A803F08E
:104DD000CAFE14220549643101A8FBF71AFB002121
:104DE00001A803F0C0FE1FB000BD000060AD0008C8
:104DF0000000002000B587B000BF0020019085486A
:104E0000006840F01000834908600846006800F020
:104E10001000019000BF00BF00BF002001900846B5
:104E2000006840F0020008600846006800F00200D8
:104E3000019000BF00BF00BF00200190084600683D
:104E400040F0400008600846006800F04000019013
:104E500000BF00BF00BF002001900846006840F07E
:104E6000080008600846006800F00800019000BFD4
:104E700000BF00BF002001900846006840F001001C
:104E800008600846006800F00100019000BF00BF04
:104E900000BF002001900846006840F48070086060
:104EA0000846006800F48070019000BF00BF00BF9A
:104EB000002001900846006840F080000860084625
:104EC000006800F08000019000BF00BF00BF00201C
:104ED00001900846006840F020000860084600681D
:104EE00000F02000019000BF00BF002288214A4846
:104EF000FEF7A6F8012204214748FEF7A1F8002298
:104F00004FF400514548FEF79BF8002244F240015F
:104F10004348FEF795F88C20029001200390002072
:104F20000490059002A93C48FDF774FF022002900E
:104F30000120039000200490059002A93848FDF755
:104F400069FF20200290012003900020049005902A
:104F500002A93148FDF75EFF402002900120039036
:104F600000200490059002A92B48FDF753FF022072
:104F700002902C4803900120049002A92648FDF7D6
:104F800049FF4FF40050029001200390002004904C
:104F9000059002A92148FDF73DFF4FF48060029083
:104FA00000200390049002A91F48FDF733FF44F24C
:104FB000400002900120039000200490059002A977
:104FC0001748FDF727FF0D20029018480390002096
:104FD000049002A91648FDF71DFF302002901148E9
:104FE00003900120049002A91148FDF713FF3C2013
:104FF00002900120039000200490059002A90D4822
:10500000FDF708FF01223C210A48FEF719F807B016
:1050100000BD00003038024000100240001802407D
:105020000014024000002110000C0240000011108A
:1050300000000240001C024010B50E480E490860F6
:105040004FF48270486000210B488160C1600161AB
:1050500041614FF4007181613021C1610021016221
:10506000416281620A21C162FEF7A2FC08B1FCF72D
:105070005DFC10BD005001408405002000B587B0E4
:105080001748184908605920486000211548816078
:1050900040F6C311C16000210161FFF7CAF808B1F1
:1050A000FCF744FC602000904FF47A7001900020DF
:1050B00002900490002269460A48FFF736F808B1CA
:1050C000FCF734FC042269460648FFF72EF808B1C5
:1050D000FCF72CFC0348FEF76DFF07B000BD000095
:1050E000001800408007002000B589B028482949F1
:1050F00008605920486000212648816042F20F7103
:10510000C16000210161FFF794F808B1FCF70EFCC3
:1051100000200790089007A91E48FEF724FE08B15A
:10512000FCF704FC6020009040F2E2400190002077
:1051300002900490002269461648FEF7F6FF08B177
:10514000FCF7F4FB40F2E24001900422694611486A
:10515000FEF7EBFF08B1FCF7E9FB4FF4FA700190A2
:10516000082269460B48FEF7E0FF08B1FCF7DEFBBA
:105170000C2269460748FEF7D8FF08B1FCF7D6FBBA
:10518000FA2001900348FEF715FF09B000BD0000AA
:1051900000000140DC05002000B589B04FF08040E0
:1051A000284908605920486000212648816042F261
:1051B0000F71C16000210161FFF73BF808B1FCF7F6
:1051C000B5FB00200790089007A91E48FEF7CBFD0D
:1051D00008B1FCF7ABFB6020009040F2DC5001907E
:1051E000002002900490002269461648FEF79DFFB9
:1051F00008B1FCF79BFB40F2DC50019004226946A9
:105200001048FEF792FF08B1FCF790FB40F2DC502B
:105210000190082269460B48FEF787FF08B1FCF7AA
:1052200085FB40F2DC5001900C2269460548FEF7F0
:105230007CFF08B1FCF77AFB0248FEF7BBFE09B021
:1052400000BD00001806002000B589B019481A49B1
:10525000086059204860002117488160C1600161E1
:10526000FEF7E7FF08B1FCF761FB0020079008900C
:1052700007A91148FEF777FD08B1FCF757FB60203E
:1052800000900020019002900490002269460A4894
:10529000FEF74BFF08B1FCF749FB042269460648BC
:1052A000FEF743FF08B1FCF741FB0348FEF782FE1F
:1052B00009B000BD000400405406002000B589B0CC
:1052C000244825490860592048600021224881600F
:1052D00040F6C311C16000210161FEF7AAFF08B1C9
:1052E000FCF724FB00200790089007A91A48FEF756
:1052F0003AFD08B1FCF71AFB602000904FF47A7079
:105300000190002002900490002269461248FEF7A6
:105310000CFF08B1FCF70AFB042269460E48FEF7B1
:1053200004FF08B1FCF702FB082269460A48FEF7B1
:10533000FCFE08B1FCF7FAFA0C2269460648FEF7B3
:10534000F4FE08B1FCF7F2FA0348FEF733FE09B0A9
:1053500000BD0000000800409006002000B589B0A4
:10536000254826490860592048600021234881606B
:1053700040F6C311C16000210161FEF75AFF08B178
:10538000FCF7D4FA00200790089007A91B48FEF705
:10539000EAFC08B1FCF7CAFA602000904FF47A707A
:1053A0000190002002900490002269461348FEF705
:1053B000BCFE08B1FCF7BAFA042269460F48FEF7B2
:1053C000B4FE08B1FCF7B2FA002001900822694649
:1053D0000A48FEF7AAFE08B1FCF7A8FA0C226946B3
:1053E0000648FEF7A2FE08B1FCF7A0FA0348FEF754
:1053F000E1FD09B000BD0000000C0040CC0600201B
:1054000010B500F041FD00F035FC10BD00B591B0C5
:105410002C482D4908600020486000212A488160FE
:10542000C16001614161FEF704FF08B1FCF77EFA3B
:1054300000200F9010900FA92348FEF794FC08B1AC
:10544000FCF774FA0020089009900A900B900C90D9
:105450004FF400500D9000200E9008A91A48FEF756
:105460005AFC08B1FCF762FA60200190002002901B
:1054700003900490059006900790002201A912481D
:10548000FEF753FE08B1FCF751FA042201A90E48B9
:10549000FEF74BFE08B1FCF749FA082201A90A48B9
:1054A000FEF743FE08B1FCF741FA0C2201A90648B9
:1054B000FEF73BFE08B1FCF739FA0348FEF77AFD28
:1054C00011B000BD000401404407002010B50B4896
:1054D0000B4908600B484860002109488160C160A1
:1054E0004FF4806101610C21416100218161C16142
:1054F000FFF748F808B1FCF719FA10BD0010014099
:105500000C0B0020A086010010B50B480B49086069
:105510004FF4E1304860002108488160C1600161BA
:105520000C21416100218161C161FFF72BF808B1B5
:10553000FCF7FCF910BD0000004400404C0B0020BB
:1055400010B50C480C4908604FF4E1304860002168
:1055500009488160C16001610C21416100218161C4
:105560004FF40041C161FFF70DF808B1FCF7DEF917
:1055700010BD0000004800408C0B002010B50B4807
:105580000B4908604FF4E130486000210848816011
:10559000C16001610C21416100218161C161FEF79F
:1055A000F1FF08B1FCF7C2F910BD00000014014082
:1055B000CC0B002000BFFEE77047000002480068E7
:1055C000C0F30220704700000CED00E010B5002889
:1055D00007DA0A07140E054A00F00F031B1FD45404
:1055E00003E00A07130E024A135410BD18ED00E041
:1055F00000E400E010B5B1EE041ADFED400A9FEDC3
:10560000400A002344F6206203213E4800F09AF845
:10561000B2EE041ADFED390A9FED3B0A4FF47A73BC
:1056200044F620620321394800F08CF89FED330ADC
:10563000374880ED190A9FED370A374880ED190A7F
:105640009FED2E1ADFED2D0AB2EE0C0A4FF47A739D
:1056500041F2707203212E4800F074F8B2EE081A7D
:10566000DFED260A9FED2D0A4FF47A7344F620628F
:105670000321294800F066F89FED291ADFED1F0A83
:105680009FED280A002342F210720321264800F001
:1056900059F8B1EE0C1ADFED250AB2EE0E0A4FF4FE
:1056A0007A7342F210720321214800F04BF89FED0B
:1056B000131AF7EE000AB2EE040A96235A000321E9
:1056C0001C4800F03FF89FED0D1ADFED0C0A9FED2E
:1056D0001A0A1E2332220321184800F033F89FEDE6
:1056E000071ADFED060A9FED140A4FF496631A4677
:1056F0000321134800F026F810BD00000000000050
:105700000000A4410450002000002442C4510020A5
:1057100074500020CDCC4C3D545100200000684214
:105720006666663F9A99993ED45400206F12833A78
:1057300044550020745700200AD7233C54580020B9
:10574000C45800202DE9F0412DED048B04460D4690
:1057500016461F46B0EE408AF0EE608AB0EE419ADF
:105760000A48A0660A48E066B0EE491AF0EE680AF8
:10577000B0EE480A3B46324629462046D4F868C077
:10578000E047BDEC048BBDE8F08100000990000803
:105790001D90000810B53248007832490872304830
:1057A000807848723048006808B9012000E0002085
:1057B0002D490860012251032C48FDF741FC29487E
:1057C000007A2B4908600121042000F0CFF8294815
:1057D000006829490988884205D226480068401C8B
:1057E0002449086003E024480088224908602148D1
:1057F000001F006821490988884207D21D48001F00
:105800000068401C1B49091F086004E01B48008811
:105810001849091F08601448006800B31148007A4D
:10582000022802D016480078C8B116480088401CEB
:1058300000B2144908800846B0F9000012490988EE
:1058400088420CDD1148006811490968114A126844
:1058500001FB02000D49086000200A49088010BDC4
:10586000CC030020AA4C0020740000200018024045
:105870007000002040080040BA000020BC0000205A
:1058800010010020A8000020AA0000207C000020B9
:10589000A40000209C000020F8B504460D461646E2
:1058A0002B46002280212046009600F009F828B1FE
:1058B000606D40F0200060650320F8BD0020FCE72B
:1058C0002DE9F04104460E4617461D46DDF81880C6
:1058D0003FE0681CE0B32DB1FDF7B8FBA0EB08007A
:1058E000A84236D32068406820F0E0002168486074
:1058F0006068B0F5827F0DD1A068B0F5004F03D08D
:10590000A068B0F5806F05D12068006820F04000E5
:1059100021680860A06AB0F5005F0ED100BF206862
:1059200000684DF6FF710840216808602068006833
:1059300040F400502168086000BF012084F8510045
:1059400000BF002084F8500000BF0320BDE8F081B4
:10595000FFE7206880683040B04201D1012000E0BC
:105960000020B842B5D10020F0E7000010B50728AC
:1059700015DA002813DD41B1094A527E431E012485
:105980009C402243064B5A7609E0054A527E431E4C
:1059900001249C4084F0FF031A40014B5A7610BD4D
:1059A000A90400201448B0F82310B0F84000081AE9
:1059B0001249098890FBF1F0022807DA0E48B0F886
:1059C000230018B100200E49086014E04FF4104085
:1059D0000B4908600849B1F82300B1F8401000EB0A
:1059E000D072B1EB620F03DA50200649088002E062
:1059F0007820044908807047700900203400002096
:105A0000A4000020AA00002000BF4FF47A70FDF728
:105A100030F9012003F08EF8F7E710B503F09BF89A
:105A200010BD000010B592B000BF002000902E48BD
:105A3000006840F080502C4908600846006800F07B
:105A40008050009000BF00BF00BF0020009027489A
:105A5000006840F44040254908600846006800F4AA
:105A60004040009000BF00BF012006900790022038
:105A70000C9041050D9106210E91B4210F91022148
:105A800010910421119106A8FDF7C4FD08B1FBF7A0
:105A90004DFFFDF7D7FB08B1FBF748FF0F20019042
:105AA00002200290002003904FF4A05004904FF485
:105AB00080500590052101A8FDF716FC08B1FBF701
:105AC00035FFFDF71BFD4FF47A71B0FBF1F4204672
:105AD000FEF705F90420FEF7EEF800220F21501E14
